:1000000055C0E0C16EC06DC06CC06BC06AC069C035
:1000100068C067C066C065C064C063C062C061C0BC
:1000200060C05FC05EC00902220001010080320989
:100030000400000103000000092101010001221653
:100040000007058103080064120110010000000888
:10005000C016DF050A0B010203011A0376006500D2
:100060007200730069006F006E00200030002E00E7
:1000700031001803740065006D00700065007200A7
:100080006100740075007200650008034E005000A6
:100090004C00040309040600FF0901A10115002614
:1000A000FF00750895800900B20201C011241FBE2F
:1000B000CFE5D4E0DEBFCDBF10E0A0E6B0E0E0E1E8
:1000C000F9E002C005900D92A436B107D9F712E00D
:1000D000A4E6B0E001C01D92A932B107E1F726D332
:1000E00015C48ECFCF93C62F2091750024FF07C073
:1000F0002091760038E823272093760003C02AE574
:1001000020937500DC01E7E7F0E09C2F9E0F8D91B6
:100110008193892F8E1B1816D4F36C2F87E790E0FC
:100120004DD1CC5FC0937500CF910895CF93DF93ED
:1001300060918600635067FDC8C080918300CCE069
:10014000D0E0C81BD109C657DF4F809182008D32A5
:1001500009F0AAC0683009F0B6C083EC80936A0049
:100160008AE580936100109264008881807631F086
:10017000CE0191D28F3F09F486C08CC09A81109233
:1001800073008981811106C01092740023E730E06A
:1001900082E074C0853019F4909387006CC086307B
:1001A00009F053C08B81813041F488E490E0909352
:1001B00085008093840082E144C0823041F486E26D
:1001C00090E0909385008093840082E23AC083306F
:1001D00019F5911108C082E990E090938500809311
:1001E000840084E02EC0913041F48AE890E090933E
:1001F00085008093840088E024C0923019F482E75F
:1002000090E004C09330E1F48AE590E0909385009B
:100210008093840088E115C0813241F488E390E046
:10022000909385008093840089E00BC0823241F472
:1002300086E990E0909385008093840086E101C078
:1002400080E090E49093640025C0883069F08930A4
:1002500019F4909389000FC08A3049F08B3059F41B
:100260008BE48093760007C029E830E002C023E7E2
:1002700030E081E003C023E730E080E03093850088
:100280002093840007C0988197FD8E8190E8909319
:10029000640007C09F81911104C09E81981708F4E3
:1002A000892F809360000FC08091640087FF0BC08E
:1002B000CE01C2D18F3F21F48EE18093610003C053
:1002C000811110926000109286008091610084FF7D
:1002D00046C0809160008F3F09F441C0C82F89302B
:1002E00008F0C8E08C1B8093600080916A0098E859
:1002F000892780936A00CC2331F1209184003091CA
:1003000085008091640086FF0BC0ABE6B0E0F90188
:100310008C2F8A0F94919D9331968A13FBCF09C03D
:10032000D901EBE6F0E08C2F8E0F9D9191938E1307
:10033000FCCF8FEF8C0F90E00196820F931F90936C
:100340008500809384006C2F8BE690E037D0CC5FE3
:10035000CC3019F08FEF80936000C093610084E18E
:1003600096B3937031F48150D9F7109287001092B0
:100370008100DF91CF91089585B7826085BF8BB7EB
:1003800080648BBF8BE4809376008AE58093750050
:100390000895A82FB92F80E090E041E050EA6095E1
:1003A00030E009C02D9182279795879510F084271A
:1003B0009527305EC8F36F5FA8F30895EADF8D9349
:1003C0009D930895CF93CFB7CF93C395B09BE9F793
:1003D000B09B09C0B09B07C0B09B05C0B09B03C0D9
:1003E000B09B01C0A3C0DF93C0918300DD27C65737
:1003F000DF4FB09B02C0DF91EBCF2F930F931F9382
:1004000006B32FEF00FB20F94F933F9316B34FEF46
:10041000012700FB21F93BE031C04E7F012F16B3CD
:10042000216028C0102F4D7F2260000006B329C034
:100430004B7F2460012F000016B32BC016B3477FFB
:1004400028602AC04F7E06B320612CC04F7D16B3B2
:1004500020622FC04F7B06B3206432C0422706B310
:1004600049934FEF0000102710FB20F916B31370CB
:10047000C9F1297F91F2012700FB21F906B3237FFF
:1004800089F2315058F1102710FB22F916B3277E5C
:1004900079F2012700FB23F92F7C81F206B31027A4
:1004A00010FB24F92F7971F200C016B3012700FB6D
:1004B00025F92F7359F200C006B3102710FB26F957
:1004C000223040F200C016B3012700FB27F9243088
:1004D00028F64F77206816B30000F9CF10E41ABF52
:1004E000002719C03B503195C31BD04010E41ABF00
:1004F0000881033CF9F00B34E9F020918100198167
:10050000110F1213EDCF4A81441F093641F10D320C
:1005100011F0013E29F7009388003F914F911F9100
:100520000F912F91DF91CAB7C6FD4FCFCF91CFBFAB
:10053000CF91189520918800222379F3109186009D
:10054000112369F534306AF13093860020938200DC
:10055000109183003BE0311B3093830022C0009157
:1005600086000130E4F40AE54F7049F430916100EF
:1005700034FD19C000936100CAE6D0E018C0309184
:10058000750034FD10C000937500C6E7D0E00FC0C1
:100590002795A8F45150A9F4220F0000F9CF4AE59D
:1005A00003C042ED01C0432FC4E1D0E032E017B3F5
:1005B0001360C09A17BB08B320E413E05F930127D0
:1005C00056E008BB279520F4515021F4220FF9CFB3
:1005D000012756E000003B5A08BBD0F2279528F4CB
:1005E000515029F4220F0000F9CF012756E027953A
:1005F00008BB20F4515021F4220FF9CF012756E017
:100600002991332308BB21F60C7F10918700110F2D
:10061000C651D04008BB11F01093810010E41ABFFE
:10062000016017B31C7F402F4C7F5F9100C000C05A
:1006300008BB17BB48BB71CF2091A0007091690027
:10064000462F50E030E0271B3109241735072CF4E2
:100650006091A00020916900621B282FFC018E2F61
:10066000821B861760F4A091690081E08A0F809355
:100670006900B0E08191AC5DBE4F8C93F0CF90915A
:1006800069008091A000981720F01092650081E029
:10069000089580E00895FC01808180768032E1F445
:1006A0008181813069F48091260290912702909394
:1006B0008500809384008091230110922301089586
:1006C000893051F481E08093650086818093A00099
:1006D000109269008FEF089580E0089520916200E4
:1006E00030916300309327022093260280932301E8
:1006F000245A314019F481EA90E002C084EA91E082
:1007000090936300809362000895209165002130EA
:1007100059F04091A00024E231E0FC0131832083B4
:100720001092A000842F089580E0089517BABD9814
:10073000C59A22DEB89A2FE946E559E0215040409B
:100740005040E1F700C00000B898789410E80AE340
:1007500088E2F82EC1E0D0E093E4E92EE7DC86E6FB
:1007600090E0D3DF813818F48093280202C0109300
:10077000280280912802882389F3E0916600F09195
:100780006700F0932201E0932101CF01029690933C
:1007900025028093240280819181A0916200B09112
:1007A000630081159140C9F482818C9381E096DFCA
:1007B000BD9AC59880E090E0E0912402F091250276
:1007C000208131818217930728F444E04A95F1F79C
:1007D0000196F2CFBD98C59AC1CF81810C93E0916B
:1007E0006200F0916300F182E0916600F091670091
:1007F0009081923439F527B3AE0102C0440F551FE2
:100800008A95E2F7CA01242B27BB28B3642F609591
:10081000262328BB20E030E0E0912402F09125025D
:10082000408151812417350730F454E05A95F1F78F
:100830002F5F3F4FF1CF97B3962397BB98B3982B79
:1008400098BB61C09334B9F524B3AE0102C0440F24
:10085000551F8A95E2F7CA01242B24BB25B3642FC8
:100860006095262325BB20E030E0E0912402F09142
:100870002502408151812417350730F454E05A9500
:10088000F1F72F5F3F4FF1CF94B3962394BB95B30D
:10089000982B95BBE0916200F0916300E082E091BB
:1008A0006200F0916300A0916600B091670011961C
:1008B0008C91818328C0943431F521B3AE0102C0FC
:1008C000440F551F8A95E2F7CA01242B21BB22B39E
:1008D000642F6095262322BB20E030E0E0912402C3
:1008E000F0912502408151812417350730F454E0FE
:1008F0005A95F1F72F5F3F4FF1CF91B3962391BBFC
:1009000092B3982B92BB82E0E9DE28CFF894FFCF18
:04091000FF5AA401E5
:00000001FF
