:1000000012C02CC02BC02AC029C028C027C026C0BF
:1000100060C024C023C022C021C020C01FC01EC099
:1000200036C01CC01BC011241FBECFE5D4E0DEBF0C
:10003000CDBF10E0A0E6B0E0ECE1FAE002C0059030
:100040000D92AE3AB107D9F710E0AEEAB0E001C0C8
:100050001D92AE3CB107E1F77AD1DEC4D1CF82D098
:100060006AE870E08EEB90E011D261E08EEB90E0F8
:1000700097D02FEF83ED90E3215080409040E1F73F
:1000800000C000001FBC37988C9A789408951F9286
:100090000F920FB60F9211248F939F931092C90065
:1000A0001092C8008CB59DB59093BB008093BA00A8
:1000B0008091B4009091B5009093B3008093B2000A
:1000C0001EBC94989F918F910F900FBE0F901F9020
:1000D00018951F920F920FB60F9211248F939F9332
:1000E0008091B4009091B50001969093B5008093F3
:1000F000B4009F918F910F900FBE0F901F90189595
:10010000009741F0EFEFFEE03197F1F700C00000FB
:100110000197F6CF08951F93CF93DF931F92CDB72A
:10012000DEB7182F811110E2862F82958F70812BF8
:1001300088BBC49A85E08A95F1F7C49882E090E084
:100140006983DEDF69816F70612B68BBC49A85E0CB
:100150008A95F1F7C49882E090E00F90DF91CF91FB
:100160001F91CECF18BA8FEF87BB82E390E0C8DF34
:1001700063E380E0D0DF62E380E0CDDF68E280E02F
:10018000CADF68E080E0C7DF6CE080E0C4DF61E0E8
:1001900080E0C1DF66E080E0BECF61E080E0BBCF01
:1001A000FF920F931F93CF93DF93082FF92E162FF3
:1001B000603138F460E8610F80E0ADDFC02FDF2DE3
:1001C0000EC0603278F460EBF6CF103258F481E064
:1001D000A2DF1F5F103119F460EC80E09CDF6991B1
:1001E0006111F3CFDF91CF911F910F91FF9008958F
:1001F000FF920F931F93CF93DF93FC0183E090E076
:10020000C22FD0E0AEE2FA2E072F332707FD30953C
:10021000132F232FA02FA295AF70AA3010F4A05D4A
:1002200001C0A95CA0830F700A3010F4005D01C00A
:10023000095C0183762F652F542F4427DF018C172B
:100240009D0711F0129602C01396F282019710F0EA
:10025000FD01DACFDF91CF911F910F91FF900895AB
:10026000BF92CF92DF92EF92FF920F931F93CF93A3
:10027000DF93E2E6F0E0B12CD0E0F12CC0E0B0E397
:10028000EB2E10E2D12E0EE2C02E008111812281D0
:1002900033814017510762077307B8F4BB2029F078
:1002A000DC01AC0FB11DEC9229C0D63060F1DC014D
:1002B000AC0FB11DDC9221E02C0FD63019F5DC011A
:1002C000A20FB11DDC92CE5F1EC0DC01AC0FB11DD0
:1002D000EC9200811181228133814017510762071E
:1002E000730760F02C912F5F2C9300811181228184
:1002F0003381401B510B620B730BEBCFCF5FBB24E1
:10030000B39401C0C22FDF5F3496DA30A9F0C53054
:1003100098F4BB2009F4B9CFD43031F0D73029F0AC
:10032000D13009F0B2CFF394F394F394DC01AC0F25
:10033000B11DCC92CF5FA9CF8F2DDF91CF911F91AF
:100340000F91FF90EF90DF90CF90BF90089587DEE0
:1003500099249A94CC24C394D12C90E8892EAA2471
:10036000AA94BA2C33E9E32E30E0F32ECEEBD0E0A2
:1003700000EA10E08091AE009091AF00019690935A
:10038000AF008093AE0015BA94BA92988A988B9A6F
:100390002FEF83EF91E0215080409040E1F700C0C3
:1003A000000088EC90E0A498A59A939AA598A49A46
:1003B000939801970097B9F7D092C900C092C800EE
:1003C000A598AD9880B7886080BF87B1856087B9F0
:1003D00088B18A6088B91DBC1CBC1092B50010920F
:1003E000B40089B7846089BFAC988A9A929A8EBC0F
:1003F0008EB581608EBDB092B100A092B0008091A8
:10040000C8009091C900892B69F08091B00090914B
:10041000B1009C01215031093093B1002093B0000C
:10042000892B69F788B188B980B7877F80BF94BA74
:1004300015BAC29886B597B59F938F93FF92EF92A6
:10044000DF93CF932AD060E08EEB90E0A9DE80911D
:10045000BA009091BB009F938F931F930F93DF93EC
:10046000CF931BD060E18EEB90E09ADE8FE19EE4AB
:100470000197F1F700C00000949A8DB79EB70C96D3
:100480000FB6F8949EBF0FBE8DBF74CFFB01DC0189
:1004900001900D920020E1F70895AEE0B0E0E2E5B2
:1004A000F2E091C20D891E8986E08C831A8309834C
:1004B0008FEF9FE79E838D83AE01475E5F4F6F890D
:1004C000788DCE01019608D0EF81F885E00FF11FFD
:1004D00010822E96E4E093C2ACE0B0E0E1E7F2E0F7
:1004E00064C27C016B018A01FC0117821682838140
:1004F00081FFB0C1CE0101964C01F7019381F60155
:1005000093FD859193FF81916F01882309F49EC12A
:10051000853239F493FD859193FF81916F01853286
:1005200021F4B70190E0B1D1E8CF512C312C20E07B
:100530002032A0F48B3269F030F4803259F08332EB
:1005400069F420612CC08D3239F0803339F4216098
:1005500026C02260246023C0286021C027FD27C058
:1005600030ED380F3A3078F426FF06C0FAE05F9E8F
:10057000300D1124532E13C08AE0389E300D112403
:10058000332E20620CC08E3221F426FD5FC1206420
:1005900006C08C3611F4206802C0883641F4F6019A
:1005A00093FD859193FF81916F018111C1CF982FA8
:1005B0009F7D9554933028F40C5F1F4FFFE3F98320
:1005C0000DC0833631F0833771F0833509F057C0A1
:1005D00021C0F801808189830E5F1F4F442443941A
:1005E000512C540114C03801F2E06F0E711CF80157
:1005F000A080B18026FF03C0652D70E002C06FEFC0
:100600007FEFC5012C8736D12C0183012C852F77F4
:10061000222E16C03801F2E06F0E711CF801A08086
:10062000B18026FF03C0652D70E002C06FEF7FEF41
:10063000C5012C8714D12C012C852068222E830122
:1006400023FC19C0832D90E048165906A0F4B70189
:1006500080E290E01AD13A94F5CFF50127FC85911C
:1006600027FE81915F01B70190E00FD131103A94DC
:10067000F1E04F1A51084114510479F7DEC0843675
:1006800011F0893631F5F80127FF07C060817181CB
:10069000828193810C5F1F4F08C060817181882720
:1006A00077FD8095982F0E5F1F4F2F76B22E97FF04
:1006B00009C090958095709561957F4F8F4F9F4FA2
:1006C0002068B22E2AE030E0A40111D1A82EA8188B
:1006D00043C0853729F42F7EB22E2AE030E025C0B2
:1006E000F22FF97FBF2E8F36C1F018F4883579F0DC
:1006F000ADC0803719F0883721F0A8C02F2F2061B6
:10070000B22EB4FE0DC08B2D8460B82E09C024FF1C
:100710000AC09F2F9660B92E06C028E030E005C0C1
:1007200020E130E002C020E132E0F801B7FE07C06E
:1007300060817181828193810C5F1F4F06C060814F
:10074000718180E090E00E5F1F4FA401D0D0A82EF1
:10075000A818FB2DFF77BF2EB6FE0BC02B2D2E7FCA
:10076000A51450F4B4FE0AC0B2FC08C02B2D2E7E96
:1007700005C07A2C2B2D03C07A2C01C0752C24FFC8
:100780000DC0FE01EA0DF11D8081803311F4297E38
:1007900009C022FF06C07394739404C0822F867828
:1007A00009F0739423FD12C020FF06C05A2C731465
:1007B00018F4530C5718732C731460F4B70180E2CB
:1007C00090E02C8762D073942C85F6CF731410F4CC
:1007D000371801C0312C24FF11C0B70180E390E02D
:1007E0002C8753D02C8522FF16C021FF03C088E53B
:1007F00090E002C088E790E0B7010CC0822F8678B5
:1008000051F021FD02C080E201C08BE227FD8DE2A4
:10081000B70190E03AD0A51430F4B70180E390E03E
:1008200034D05A94F8CFAA94F401EA0DF11D8081D6
:10083000B70190E02AD0A110F6CF332009F45DCEA5
:10084000B70180E290E021D03A94F7CFF70186819A
:10085000978102C08FEF9FEF2C96E2E1C2C0FC01AE
:100860000590615070400110D8F7809590958E0FDB
:100870009F1F0895FC016150704001900110D8F74E
:10088000809590958E0F9F1F08950F931F93CF9380
:10089000DF93182F092FEB018B8181FD03C08FEFB0
:1008A0009FEF20C082FF10C04E815F812C813D816F
:1008B000421753077CF4E881F9819F012F5F3F4F76
:1008C00039832883108306C0E885F985812F09952F
:1008D000892B29F72E813F812F5F3F4F3F832E8346
:1008E000812F902FDF91CF911F910F910895FA01E1
:1008F000AA27283051F1203181F1E8946F936E7F5F
:100900006E5F7F4F8F4F9F4FAF4FB1E03ED0B4E04F
:100910003CD0670F781F891F9A1FA11D680F791F90
:100920008A1F911DA11D6A0F711D811D911DA11DA1
:1009300020D009F468943F912AE0269F11243019B1
:10094000305D3193DEF6CF010895462F4770405D4C
:100950004193B3E00FD0C9F7F6CF462F4F70405DFB
:100960004A3318F0495D31FD4052419302D0A9F756
:10097000EACFB4E0A6959795879577956795BA9550
:10098000C9F700976105710508959B01AC010A2E16
:1009900006945795479537952795BA95C9F7620FED
:1009A000731F841F951FA01D08952F923F924F9291
:1009B0005F926F927F928F929F92AF92BF92CF92EF
:1009C000DF92EF92FF920F931F93CF93DF93CDB7F8
:1009D000DEB7CA1BDB0B0FB6F894DEBF0FBECDBF70
:1009E00009942A88398848885F846E847D848C8441
:1009F0009B84AA84B984C884DF80EE80FD800C814A
:100A00001B81AA81B981CE0FD11D0FB6F894DEBF2C
:0C0A10000FBECDBFED010895F894FFCF9C
:100A1C00320000CA9A3B00E1F505809698004042EE
:100A2C000F00A086010010270000E80300006400FE
:100A3C0000000A00000001000000524553455454C8
:100A4C0045440049435231203A202575202020008E
:0E0A5C0054434E54313A2025752020200000CE
:00000001FF
